{
  "_format": "hh-sol-artifact-1",
  "contractName": "PiePortal",
  "sourceName": "contracts/PiePortal.sol",
  "abi": [
    {
      "inputs": [],
      "stateMutability": "payable",
      "type": "constructor"
    },
    {
      "anonymous": false,
      "inputs": [
        {
          "indexed": true,
          "internalType": "address",
          "name": "from",
          "type": "address"
        },
        {
          "indexed": false,
          "internalType": "uint256",
          "name": "timestamp",
          "type": "uint256"
        },
        {
          "indexed": false,
          "internalType": "string",
          "name": "message",
          "type": "string"
        }
      ],
      "name": "NewPie",
      "type": "event"
    },
    {
      "inputs": [],
      "name": "getAllPies",
      "outputs": [
        {
          "components": [
            {
              "internalType": "address",
              "name": "thrower",
              "type": "address"
            },
            {
              "internalType": "string",
              "name": "message",
              "type": "string"
            },
            {
              "internalType": "uint256",
              "name": "timestamp",
              "type": "uint256"
            }
          ],
          "internalType": "struct PiePortal.Pie[]",
          "name": "",
          "type": "tuple[]"
        }
      ],
      "stateMutability": "view",
      "type": "function"
    },
    {
      "inputs": [],
      "name": "getTotalPies",
      "outputs": [
        {
          "internalType": "uint256",
          "name": "",
          "type": "uint256"
        }
      ],
      "stateMutability": "view",
      "type": "function"
    },
    {
      "inputs": [
        {
          "internalType": "address",
          "name": "",
          "type": "address"
        }
      ],
      "name": "lastThrowedAt",
      "outputs": [
        {
          "internalType": "uint256",
          "name": "",
          "type": "uint256"
        }
      ],
      "stateMutability": "view",
      "type": "function"
    },
    {
      "inputs": [
        {
          "internalType": "string",
          "name": "_message",
          "type": "string"
        }
      ],
      "name": "pie",
      "outputs": [],
      "stateMutability": "nonpayable",
      "type": "function"
    }
  ],
  "bytecode": "0x608060405262000033604051806060016040528060258152602001620015b6602591396200005b60201b620006c81760201c565b60644442620000439190620001a8565b6200004f919062000245565b600181905550620002ec565b620000fb8160405160240162000072919062000168565b6040516020818303038152906040527f41304fac000000000000000000000000000000000000000000000000000000007bffffffffffffffffffffffffffffffffffffffffffffffffffffffff19166020820180517bffffffffffffffffffffffffffffffffffffffffffffffffffffffff8381831617835250505050620000fe60201b60201c565b50565b60008151905060006a636f6e736f6c652e6c6f679050602083016000808483855afa5050505050565b600062000134826200018c565b62000140818562000197565b9350620001528185602086016200020f565b6200015d81620002db565b840191505092915050565b6000602082019050818103600083015262000184818462000127565b905092915050565b600081519050919050565b600082825260208201905092915050565b6000620001b58262000205565b9150620001c28362000205565b9250827fffffffffffffffffffffffffffffffffffffffffffffffffffffffffffffffff03821115620001fa57620001f96200027d565b5b828201905092915050565b6000819050919050565b60005b838110156200022f57808201518184015260208101905062000212565b838111156200023f576000848401525b50505050565b6000620002528262000205565b91506200025f8362000205565b925082620002725762000271620002ac565b5b828206905092915050565b7f4e487b7100000000000000000000000000000000000000000000000000000000600052601160045260246000fd5b7f4e487b7100000000000000000000000000000000000000000000000000000000600052601260045260246000fd5b6000601f19601f8301169050919050565b6112ba80620002fc6000396000f3fe608060405234801561001057600080fd5b506004361061004c5760003560e01c80632cbcba7314610051578063550b4fa11461006f5780638f8482b81461008d578063d3ae1e88146100a9575b600080fd5b6100596100d9565b6040516100669190610e5c565b60405180910390f35b610077610124565b6040516100849190610d13565b60405180910390f35b6100a760048036038101906100a29190610aaa565b610275565b005b6100c360048036038101906100be9190610a81565b6106b0565b6040516100d09190610e5c565b60405180910390f35b600061011c6040518060400160405280601b81526020017f5765206861766520256420746f74616c20706965732120f09fa5a70000000000815250600054610761565b600054905090565b60606002805480602002602001604051908101604052809291908181526020016000905b8282101561026c57838290600052602060002090600302016040518060600160405290816000820160009054906101000a900473ffffffffffffffffffffffffffffffffffffffff1673ffffffffffffffffffffffffffffffffffffffff1673ffffffffffffffffffffffffffffffffffffffff1681526020016001820180546101d190611042565b80601f01602080910402602001604051908101604052809291908181526020018280546101fd90611042565b801561024a5780601f1061021f5761010080835404028352916020019161024a565b820191906000526020600020905b81548152906001019060200180831161022d57829003601f168201915b5050505050815260200160028201548152505081526020019060010190610148565b50505050905090565b42610384600360003373ffffffffffffffffffffffffffffffffffffffff1673ffffffffffffffffffffffffffffffffffffffff168152602001908152602001600020546102c39190610f6e565b10610303576040517f08c379a00000000000000000000000000000000000000000000000000000000081526004016102fa90610e3c565b60405180910390fd5b42600360003373ffffffffffffffffffffffffffffffffffffffff1673ffffffffffffffffffffffffffffffffffffffff1681526020019081526020016000208190555060016000808282546103599190610f6e565b9250508190555061039f6040518060400160405280601981526020017f257320686173207468726f776e2061207069652120f09fa5a700000000000000815250336107fd565b6103df6040518060400160405280601681526020017f257320776176656420772f206d657373616765202573000000000000000000008152503383610899565b600260405180606001604052803373ffffffffffffffffffffffffffffffffffffffff16815260200183815260200142815250908060018154018082558091505060019003906000526020600020906003020160009091909190915060008201518160000160006101000a81548173ffffffffffffffffffffffffffffffffffffffff021916908373ffffffffffffffffffffffffffffffffffffffff160217905550602082015181600101908051906020019061049e929190610961565b50604082015181600201555050606460015442446104bc9190610f6e565b6104c69190610f6e565b6104d091906110a5565b6001819055506105176040518060400160405280601681526020017f52616e646f6d20232067656e6572617465643a20256400000000000000000000815250600154610761565b60326001541161065d576105606040518060400160405280600781526020017f257320776f6e2100000000000000000000000000000000000000000000000000815250336107fd565b6000655af3107a40009050478111156105ae576040517f08c379a00000000000000000000000000000000000000000000000000000000081526004016105a590610dfc565b60405180910390fd5b60003373ffffffffffffffffffffffffffffffffffffffff16826040516105d490610cfe565b60006040518083038185875af1925050503d8060008114610611576040519150601f19603f3d011682016040523d82523d6000602084013e610616565b606091505b505090508061065a576040517f08c379a000000000000000000000000000000000000000000000000000000000815260040161065190610e1c565b60405180910390fd5b50505b3373ffffffffffffffffffffffffffffffffffffffff167f4971890174272d1853b03dd0faa3aa0a2d045c841b05972c095ff1240d523abc42836040516106a5929190610e77565b60405180910390a250565b60036020528060005260406000206000915090505481565b61075e816040516024016106dc9190610d35565b6040516020818303038152906040527f41304fac000000000000000000000000000000000000000000000000000000007bffffffffffffffffffffffffffffffffffffffffffffffffffffffff19166020820180517bffffffffffffffffffffffffffffffffffffffffffffffffffffffff8381831617835250505050610938565b50565b6107f98282604051602401610777929190610dcc565b6040516020818303038152906040527f9710a9d0000000000000000000000000000000000000000000000000000000007bffffffffffffffffffffffffffffffffffffffffffffffffffffffff19166020820180517bffffffffffffffffffffffffffffffffffffffffffffffffffffffff8381831617835250505050610938565b5050565b6108958282604051602401610813929190610d57565b6040516020818303038152906040527f319af333000000000000000000000000000000000000000000000000000000007bffffffffffffffffffffffffffffffffffffffffffffffffffffffff19166020820180517bffffffffffffffffffffffffffffffffffffffffffffffffffffffff8381831617835250505050610938565b5050565b6109338383836040516024016108b193929190610d87565b6040516020818303038152906040527fe0e9ad4f000000000000000000000000000000000000000000000000000000007bffffffffffffffffffffffffffffffffffffffffffffffffffffffff19166020820180517bffffffffffffffffffffffffffffffffffffffffffffffffffffffff8381831617835250505050610938565b505050565b60008151905060006a636f6e736f6c652e6c6f679050602083016000808483855afa5050505050565b82805461096d90611042565b90600052602060002090601f01602090048101928261098f57600085556109d6565b82601f106109a857805160ff19168380011785556109d6565b828001600101855582156109d6579182015b828111156109d55782518255916020019190600101906109ba565b5b5090506109e391906109e7565b5090565b5b80821115610a005760008160009055506001016109e8565b5090565b6000610a17610a1284610ecc565b610ea7565b905082815260208101848484011115610a2f57600080fd5b610a3a848285611000565b509392505050565b600081359050610a518161126d565b92915050565b600082601f830112610a6857600080fd5b8135610a78848260208601610a04565b91505092915050565b600060208284031215610a9357600080fd5b6000610aa184828501610a42565b91505092915050565b600060208284031215610abc57600080fd5b600082013567ffffffffffffffff811115610ad657600080fd5b610ae284828501610a57565b91505092915050565b6000610af78383610c90565b905092915050565b610b0881610fc4565b82525050565b610b1781610fc4565b82525050565b6000610b2882610f0d565b610b328185610f30565b935083602082028501610b4485610efd565b8060005b85811015610b805784840389528151610b618582610aeb565b9450610b6c83610f23565b925060208a01995050600181019050610b48565b50829750879550505050505092915050565b6000610b9d82610f18565b610ba78185610f4c565b9350610bb781856020860161100f565b610bc081611192565b840191505092915050565b6000610bd682610f18565b610be08185610f5d565b9350610bf081856020860161100f565b610bf981611192565b840191505092915050565b6000610c11603483610f5d565b9150610c1c826111a3565b604082019050919050565b6000610c34602783610f5d565b9150610c3f826111f2565b604082019050919050565b6000610c57600083610f41565b9150610c6282611241565b600082019050919050565b6000610c7a600883610f5d565b9150610c8582611244565b602082019050919050565b6000606083016000830151610ca86000860182610aff565b5060208301518482036020860152610cc08282610b92565b9150506040830151610cd56040860182610ce0565b508091505092915050565b610ce981610ff6565b82525050565b610cf881610ff6565b82525050565b6000610d0982610c4a565b9150819050919050565b60006020820190508181036000830152610d2d8184610b1d565b905092915050565b60006020820190508181036000830152610d4f8184610bcb565b905092915050565b60006040820190508181036000830152610d718185610bcb565b9050610d806020830184610b0e565b9392505050565b60006060820190508181036000830152610da18186610bcb565b9050610db06020830185610b0e565b8181036040830152610dc28184610bcb565b9050949350505050565b60006040820190508181036000830152610de68185610bcb565b9050610df56020830184610cef565b9392505050565b60006020820190508181036000830152610e1581610c04565b9050919050565b60006020820190508181036000830152610e3581610c27565b9050919050565b60006020820190508181036000830152610e5581610c6d565b9050919050565b6000602082019050610e716000830184610cef565b92915050565b6000604082019050610e8c6000830185610cef565b8181036020830152610e9e8184610bcb565b90509392505050565b6000610eb1610ec2565b9050610ebd8282611074565b919050565b6000604051905090565b600067ffffffffffffffff821115610ee757610ee6611163565b5b610ef082611192565b9050602081019050919050565b6000819050602082019050919050565b600081519050919050565b600081519050919050565b6000602082019050919050565b600082825260208201905092915050565b600081905092915050565b600082825260208201905092915050565b600082825260208201905092915050565b6000610f7982610ff6565b9150610f8483610ff6565b9250827fffffffffffffffffffffffffffffffffffffffffffffffffffffffffffffffff03821115610fb957610fb86110d6565b5b828201905092915050565b6000610fcf82610fd6565b9050919050565b600073ffffffffffffffffffffffffffffffffffffffff82169050919050565b6000819050919050565b82818337600083830152505050565b60005b8381101561102d578082015181840152602081019050611012565b8381111561103c576000848401525b50505050565b6000600282049050600182168061105a57607f821691505b6020821081141561106e5761106d611134565b5b50919050565b61107d82611192565b810181811067ffffffffffffffff8211171561109c5761109b611163565b5b80604052505050565b60006110b082610ff6565b91506110bb83610ff6565b9250826110cb576110ca611105565b5b828206905092915050565b7f4e487b7100000000000000000000000000000000000000000000000000000000600052601160045260246000fd5b7f4e487b7100000000000000000000000000000000000000000000000000000000600052601260045260246000fd5b7f4e487b7100000000000000000000000000000000000000000000000000000000600052602260045260246000fd5b7f4e487b7100000000000000000000000000000000000000000000000000000000600052604160045260246000fd5b6000601f19601f8301169050919050565b7f547279696e6720746f207769746864726177206d6f7265206d6f6e657920746860008201527f616e2074686520636f6e7472616374206861732e000000000000000000000000602082015250565b7f4661696c656420746f207769746864726177206d6f6e65792066726f6d20636f60008201527f6e74726163742e00000000000000000000000000000000000000000000000000602082015250565b50565b7f576169742031356d000000000000000000000000000000000000000000000000600082015250565b61127681610fc4565b811461128157600080fd5b5056fea2646970667358221220450ceed61290621f169045fb32d6d92335a45a1589f897174eb67b418fd7387b64736f6c63430008040033596f20796f2c204920616d206120636f6e747261637420616e64204920616d20736d617274",
  "linkReferences": {},
  "deployedLinkReferences": {}
}